:1000000019C033C042C031C030C02FC02EC02DC077
:100010002CC02BC02AC029C028C027C026C025C09C
:1000200024C023C09FC021C020C01FC01EC01DC04F
:100030001CC01BC011241FBECFEFD4E0DEBFCDBF5C
:1000400011E0A0E0B1E0EEE7F8E002C005900D920B
:10005000A630B107D9F711E0A6E0B1E001C01D92CA
:10006000A132B107E1F72ED008C4CACF5A9A8FE364
:100070009CE90197F1F700C000005A988FE39CE9D2
:100080000197F1F700C0000008951F920F920FB67C
:100090000F9211248F938FEF809306018F910F9011
:1000A0000FBE0F901F901895809116019091170127
:1000B00022E08434920718F45C9A81E008955C98F9
:1000C00080E008958FEF8AB92BD0D9D042D282E058
:1000D0008DBB8CE080936900789482ED70D28FEFB5
:1000E000A6D2C4DFD1D0E0DF8823D9F78091070101
:1000F0008F3F09F4FAD0809106018F3F91F721D10B
:10010000F0CF20E030E008C0EFECF7E03197F1F7F6
:1001100000C000002F5F3F4F28173907ACF3089548
:100120001092C5008DE48093C40088E98093C100DB
:1001300086E08093C200109206011092070110928F
:1001400009011092080108958091C00087FFFCCF3B
:100150008091C60008959091C00095FFFCCF8093D8
:10016000C60008951F920F920FB60F9211242F937D
:100170003F934F935F936F937F938F939F93AF932F
:10018000BF93EF93FF938091C600843661F185366B
:1001900040F48236B1F08336B8F4813609F04BC0B2
:1001A00008C0863661F1863600F1873609F043C013
:1001B00032C08FEF8093060181E0E8D181E01ED24A
:1001C0003AC01092060124C080910701882321F4CF
:1001D0008FEF8093070102C0109207018091070101
:1001E0008093070128C085E001C08BEF2AD28AE006
:1001F000B2DF01D2B0DF80E2AEDF35D21BC081E0DA
:10020000C5D182E0FBD1809108019091090179DF8D
:10021000CFD106D210C08091080190910901449677
:1002200090930901809308018AE095DF809108018D
:100230009091090190DFFF91EF91BF91AF919F9154
:100240008F917F916F915F914F913F912F910F907F
:100250000FBE0F901F901895EF92FF92CF93DF93F0
:10026000E82EE7017E01F92EE70101C074DF8991D4
:100270008823E1F7DF91CF91FF90EF90089517B8B1
:1002800080E880937A00089580E090E020917C00DF
:10029000207F20937C0020917C00282B20937C00E1
:1002A00020917A00206420937A0020E030E0FC0165
:1002B000EE0FFF1FE65FFE4F40917A0046FDFCCF38
:1002C0004091780050917900752F60E050E0462B06
:1002D000572B518340832F5F3F4F2230310561F709
:1002E00001968830910591F60895EF92FF920F9351
:1002F0001F93CF93DF93809107018823D9F08CE17E
:100300002ADF8CE128DFC0E0D0E0FE01EE0FFF1F06
:10031000E65FFE4F20813181F22E00811181822F14
:100320001ADF812F18DF812F8F2515DF2196C83026
:10033000D10559F7DF91CF911F910F91FF90EF9069
:10034000089580910A0190910B0122E0883592076F
:1003500008F0E2C080910C0190910D0122E08835F7
:10036000920708F0D9C081E011D181E047D181E046
:100370000EC0809110019091110122E08835920702
:1003800008F0D3C082E002D182E038D182E08093CD
:100390001A01BFC082E0FAD082E030D185E0F7CF09
:1003A00080910A0190910B0122E08835920730F488
:1003B00081E0ECD081E022D186E0E9CF809110018C
:1003C0009091110122E08835920730F482E0DED06E
:1003D00082E014D187E0DBCF80910C0190910D0178
:1003E00022E08835920730F481E0D0D081E006D158
:1003F00088E0CDCF80911A01882351F180911A01B4
:10040000873028F4853080F48230F9F403C08930D5
:10041000E0F411C080E991E074DE81E0B7D082E0C1
:10042000EDD088EE93E010C080E991E06ADE81E0D3
:10043000ADD082E006C080E991E063DE82E0A6D024
:1004400081E0DCD088E592E05CDE10921A0161C0A8
:10045000809118019091190121E0853F920790F455
:10046000809114019091150122E08E3E920708F0D0
:1004700066C0809112019091130123E082359207AA
:1004800008F05DC081E001C082E080D081E00BC057
:10049000809114019091150122E08E3E920728F47C
:1004A00081E074D082E0AAD034C080911B018F5FBC
:1004B00080931B0180911B01883210F481E025C0DC
:1004C00080911B01883271F436D162E070E0CED0A9
:1004D00080931C0130D16FE070E0C8D08A5F8093B8
:1004E000000108958091000120911B0190E0879602
:1004F00030E0821793076CF080911C01882321F46F
:1005000081E044D082E003C082E040D081E076D038
:10051000089510921B01089580910E0190910F0192
:1005200022E08835920708F424CF80910E01909143
:100530000F0122E08835920708F032CF2BCF80914F
:1005400012019091130123E08235920708F0A0CFA9
:100550009BCF209A579A229A559A569A219AE0E868
:10056000F0E08081816A8083E1E8F0E0808183604F
:10057000808310928B0010928A0010928900109252
:10058000880010921F01109220010895813019F403
:10059000289A5F9803C028985F9A82E080931F0191
:1005A00080911D0190E090938B0080938A000895C4
:1005B00010928B0010928A0010921F010895809370
:1005C0001D0180911F01882319F080911F01DEDF3A
:1005D000089590911D01282F332727FD3095290F6D
:1005E000311D2F3F310534F490911D0190911D0173
:1005F000890FE5DF089580911D010895813019F478
:100600005D9A5E9803C05D985E9A82E080932001B7
:1006100080911E0190E09093890080938800089556
:100620001092890010928800109220010895809302
:100630001E0180912001882319F080912001DEDFC6
:10064000089590911E01282F332727FD3095290FFB
:10065000311D2F3F310534F490911E0190911E0100
:10066000890FE5DF089580911E01089597FB092EFB
:1006700007260AD077FD04D00CD006D000201AF44B
:10068000709561957F4F0895F6F7909581959F4FEE
:100690000895AA1BBB1B51E107C0AA1FBB1FA617C9
:1006A000B70710F0A61BB70B881F991F5A95A9F71B
:1006B00080959095BC01CD010895A0E0B0E0E2E600
:1006C000F3E08AC0EC01688179818A819B816115A0
:1006D00071058105910521F464E279ED8BE597E0E0
:1006E0002DE133EF41E050E054D079018A0127EA4F
:1006F00031E440E050E02ED05B016C01C801B7014D
:100700002CEE34EF4FEF5FEF25D06A0D7B1D8C1D73
:100710009D1D97FF04C061507040804090486883E1
:1007200079838A839B837F77CB01CDB7DEB7EAE0FD
:100730006FC0C3DF089581E091E0BFDF0895A0E0BE
:10074000B0E08093010190930201A0930301B09364
:1007500004010895629FD001739FF001829FE00D14
:10076000F11D649FE00DF11D929FF00D839FF00D30
:10077000749FF00D659FF00D9927729FB00DE11DDC
:10078000F91F639FB00DE11DF91FBD01CF011124B9
:10079000089597FB092E05260ED057FD04D04BD0A7
:1007A0000AD0001C38F450954095309521953F4F64
:1007B0004F4F5F4F0895F6F790958095709561952E
:1007C0007F4F8F4F9F4F08952F923F924F925F928E
:1007D0006F927F928F929F92AF92BF92CF92DF9251
:1007E000EF92FF920F931F93CF93DF93CDB7DEB7B6
:1007F000CA1BDB0B0FB6F894DEBF0FBECDBF09944A
:100800002A88398848885F846E847D848C849B84A0
:10081000AA84B984C884DF80EE80FD800C811B81AE
:10082000AA81B981CE0FD11D0FB6F894DEBF0FBEDD
:10083000CDBFED010895A1E21A2EAA1BBB1BFD013D
:100840000DC0AA1FBB1FEE1FFF1FA217B307E407AF
:10085000F50720F0A21BB30BE40BF50B661F771F07
:10086000881F991F1A9469F76095709580959095E7
:0E0870009B01AC01BD01CF010895F894FFCFAC
:06087E000501000000006E
:00000001FF
