:1000000019C033C048C031C030C02FC02EC02DC071
:100010002CC02BC02AC029C028C027C026C025C09C
:1000200024C023C0A5C021C020C01FC01EC01DC049
:100030001CC01BC011241FBECFEFD4E0DEBFCDBF5C
:1000400011E0A0E0B1E0E8E9F5E002C005900D9212
:10005000A230B107D9F711E0A2E0B1E001C01D92D2
:10006000A831B107E1F755D095C2CACF5A9A8FE7A8
:1000700098E3A1E081509040A040E1F700C000006B
:100080005A988FE798E3A1E081509040A040E1F7B3
:1000900000C0000008951F920F920FB60F92112416
:1000A0002F933F934F935F936F937F938F939F9380
:1000B000AF93BF93EF93FF938BB190E189278BB9F7
:1000C000809100019091010117D2E5D1809100014A
:1000D000909101018195B9D187D1809100019091D2
:1000E0000101909581959F4F9093010180930001AC
:1000F000FF91EF91BF91AF919F918F917F916F9100
:100100005F914F913F912F910F900FBE0F901F90D5
:1001100018958FEF8AB915D0C4D049D182E08DBB34
:100120008CE0809369007894A1DFC0D080910301B6
:100130008F3F09F4E5D0809102018F3FA9F70CD1E0
:10014000F3CF1092C5008DE48093C40088E98093BA
:10015000C10086E08093C200109202011092030158
:1001600008958091C00087FFFCCF8091C60008955C
:100170001F920F920FB60F921124DF92EF92FF920F
:100180000F931F932F933F934F935F936F937F939F
:100190008F939F93AF93BF93EF93FF938091C6008C
:1001A000813141F58091C1008F778093C100D9DF03
:1001B000182FD7DFD82ED5DF082FF82ED2DFE82E64
:1001C000112311F43BD106C0DD2009F41195812FD4
:1001D0003CD10AD1002311F488D107C0EE2011F4DC
:1001E000F02EF1948F2D88D156D18091C100806876
:1001F0008093C1008091C600813649F48FEF8093CF
:10020000020182E322D18BE477D1EED044D18091F8
:10021000C600823621F41092020110D166D180917D
:10022000C600833671F480910301882321F48FEF97
:100230008093030102C01092030180910301809317
:100240000301FF91EF91BF91AF919F918F917F91AA
:100250006F915F914F913F912F911F910F91FF905F
:10026000EF90DF900F900FBE0F901F901895909118
:10027000C00095FFFCCF8093C6000895EF92FF92D7
:10028000CF93DF93E82EE7017E01F92EE70101C04D
:10029000EEDF89918823E1F7DF91CF91FF90EF9016
:1002A000089517B880E880937A00089580E090E080
:1002B00020917C00207F20937C0020917C00282BC3
:1002C00020937C0020917A00206420937A00209172
:1002D0007A0026FDFCCF2091780030917900532FD1
:1002E00040E030E0242B352BFC01EE0FFF1FEC5FCC
:1002F000FE4F31832083019688309105C9F6089519
:10030000EF92FF920F931F93CF93DF93809103019E
:100310008823D9F08CE1ABDF8CE1A9DFC0E0D0E02D
:10032000FE01EE0FFF1FEC5FFE4F20813181F22EA8
:1003300000811181822F9BDF812F99DF812F8F25F3
:1003400096DF2196C830D10559F7DF91CF911F91E3
:100350000F91FF90EF900895809104019091050115
:1003600023E08438920740F08091060190910701C4
:1003700023E08438920788F482E367D08BE40BC0D3
:1003800080910A0190910B0122E08E3E920770F459
:100390008EEC5BD085EBB0D00895809108019091F0
:1003A000090122E08E3E920798F3EACF0895209A41
:1003B000579A229A559A569A219AE0E8F0E080815D
:1003C000816A8083E1E8F0E080818360808310921D
:1003D0008B0010928A00109289001092880010926F
:1003E000160110921701089580911401181654F403
:1003F000289A5F9840911401552747FD50952FEF9B
:1004000030E009C028985F9A40911401552747FDB4
:10041000509521E03FEF429FC001439F900D529FB6
:10042000900D112464E670E08ED070E070938B0024
:1004300060938A0081E080931601089510928B00EA
:1004400010928A00109216010895209114018202E0
:10045000900111248C391CF085361CF403C08CE902
:1004600001C084E637FF0FC080931401809116010C
:10047000813081F4E3DF8FE39CE90197F1F700C05D
:100480000000B2DF0895809314018091160181303D
:1004900009F4AADF089580911501181654F45D9AA5
:1004A0005E9840911501552747FD50952FEF30E09C
:1004B00009C05D985E9A40911501552747FD5095FA
:1004C00021E03FEF429FC001439F900D529F900D4E
:1004D000112464E670E037D070E070938900609377
:1004E000880081E08093170108951092890010928E
:1004F0008800109217010895209115018202900141
:1005000011248C391CF085361CF403C08CE901C021
:1005100084E637FF0FC08093150180911701813069
:1005200081F4E3DF8FE39CE90197F1F700C000005D
:10053000B2DF08958093150180911701813009F48D
:10054000AADF0895089597FB092E07260AD077FDA4
:1005500004D00CD006D000201AF4709561957F4F1E
:100560000895F6F7909581959F4F0895AA1BBB1BA0
:1005700051E107C0AA1FBB1FA617B70710F0A61BA3
:10058000B70B881F991F5A95A9F780959095BC01C4
:08059000CD010895F894FFCF9E
:020598006400FD
:00000001FF
