:1000000019C033C057C031C030C02FC02EC02DC062
:100010002CC02BC02AC029C028C027C026C025C09C
:1000200024C023C0A6C021C020C01FC01EC01DC048
:100030001CC01BC011241FBECFEFD4E0DEBFCDBF5C
:1000400011E0A0E0B1E0ECEEF4E002C005900D920A
:10005000A230B107D9F711E0A2E0B1E001C01D92D2
:10006000A231B107E1F717D03FC2CACF5A9A84EF45
:1000700091E028EC30E0F9013197F1F70197D9F7D9
:100080005A9884EF91E028EC30E0F9013197F1F7CC
:100090000197D9F708958FEF8AB943D0CAD027D1F5
:1000A00082E08DBB8CE0809369007894DFDFC5D05F
:1000B000F7D0FCCF1F920F920FB60F9211242F93FF
:1000C0003F934F935F936F937F938F939F93AF93E0
:1000D000BF93EF93FF938BB190E189278BB9809108
:1000E000000190910101AED17BD1809100019091EE
:1000F0000101909581959F4F90930101809300019C
:10010000FF91EF91BF91AF919F918F917F916F91EF
:100110005F914F913F912F910F900FBE0F901F90C5
:1001200018951092C5008DE48093C40088E98093EF
:10013000C10086E08093C20008958091C00087FFCF
:10014000FCCF8091C6000895982F8091C00085FF54
:10015000FCCF9093C6000895FC0107C08091C000B9
:1001600085FFFCCF31969093C60090819923B1F71B
:1001700008951F920F920FB60F9211240F931F93A1
:100180002F933F934F935F936F937F938F939F939F
:10019000AF93BF93EF93FF938091C6008131B1F588
:1001A0008091C1008F778093C1008091C00087FF4C
:1001B000FCCF9091C6008091C00087FFFCCF2091BA
:1001C000C6008091C00087FFFCCF1091C6008091CF
:1001D000C00087FFFCCF0091C600992311F4CFD057
:1001E00006C0222309F49195892FD0D09DD01123E8
:1001F00011F421D106C0002309F41195812F22D1D9
:10020000EFD08091C10080688093C100FF91EF9191
:10021000BF91AF919F918F917F916F915F914F911E
:100220003F912F911F910F910F900FBE0F901F9034
:10023000189580E880937A00089560E070E08091DE
:100240007C00807F80937C0080917C00862B809353
:100250007C0040E050E0FB01EE0FFF1FEE5FFE4F21
:1002600080917A00806480937A0080917A0086FD84
:10027000FCCF8091780020917900322F20E090E02F
:10028000822B932B918380834F5F5F4F42305105C8
:1002900039F76F5F7F4F6630710589F608950895CD
:1002A000EF92FF920F931F93CF93DF938FEF4CDF6B
:1002B0008FEF4ADFC0E0D0E0FE01EE0FFF1FEE5FE0
:1002C000FE4F80819181E82E008111813DDF812FD9
:1002D0003BDF812F8E2538DF2196C630D10561F7AF
:1002E000DF91CF911F910F91FF90EF900895209A89
:1002F000579A229A569A559A219AE0E8F0E080811E
:10030000816A8083E1E8F0E08081836080831092DD
:100310008B0010928A00109289001092880010922F
:10032000100110921101089580910E01181654F4D5
:10033000289A5F9880910E01992787FD90952FEF5D
:1003400030E009C028985F9A80910E01992787FDB7
:10035000909521E03FEFAC01429FC001439F900D7B
:10036000529F900D112464E670E097D070E0709376
:100370008B0060938A0081E08093100108951092B1
:100380008B0010928A0010921001089590910E0136
:100390008C3914F42CE905C0853614F024E601C02C
:1003A000282F8902C001112497FF12C020930E014B
:1003B00080911001813099F410928B0010928A0084
:1003C0001092100180E49CE90197F1F7ADDF0895E8
:1003D00020930E0180911001813009F4A5DF08956A
:1003E00080910F01181654F45E9A5D9880910F0168
:1003F000992787FD90952FEF30E009C05E985D9AB0
:1004000080910F01992787FD909521E03FEFAC0186
:10041000429FC001439F900D529F900D112464E6AE
:1004200070E03BD070E0709389006093880081E0B9
:100430008093110108951092890010928800109203
:100440001101089590910F018C3914F42CE905C025
:10045000853614F024E601C0282F8902C00111243A
:1004600097FF12C020930F0180911101813099F400
:1004700010928900109288001092110180E49CE98A
:100480000197F1F7ADDF089520930F0180911101DD
:10049000813009F4A5DF0895089597FB092E0726FA
:1004A0000AD077FD04D00CD006D000201AF4709545
:1004B00061957F4F0895F6F7909581959F4F089528
:1004C000AA1BBB1B51E107C0AA1FBB1FA617B7077A
:1004D00010F0A61BB70B881F991F5A95A9F7809596
:0C04E0009095BC01CD010895F894FFCF69
:0204EC001E00F0
:00000001FF
